:100000000C9446000C9465000C9465000C946500FB
:100010000C9465000C9465000C9465000C946500CC
:100020000C9465000C9465000C9465000C946500BC
:100030000C94A2000C9465000C9465000C9465006F
:100040000C9467000C9465000C9465000C9465009A
:100050000C9465000C9465000C9465000C9465008C
:100060000C9465000C9465000C9465000C9465007C
:100070000C9465000C9465000C9465000C9465006C
:100080000C9465000C9465000C94650011241FBE4F
:10009000CFEFD0E4DEBFCDBF11E0A0E0B1E0E0EEF5
:1000A000F4E000E00BBF02C007900D92A237B10749
:1000B000D9F711E0A2E7B1E001C01D92A03EB1075F
:1000C000E1F70E942E010C946E020C9400001F9226
:1000D0000F920FB60F9211248F939F938091CC01B2
:1000E0009091CD01892B49F08091CC019091CD0167
:1000F00001979093CD018093CC018091D80190918C
:10010000D901892B49F08091D8019091D9010197AB
:100110009093D9018093D8018091D1019091D2011F
:10012000892B49F08091D1019091D2010197909350
:10013000D2018093D1019F918F910F900FBE0F90AC
:100140001F9018951F920F920FB60F9211242F93A4
:100150003F938F939F938091860090918700909317
:10016000D0018093CF018091CF019091D001209157
:10017000C8013091C901821B930B9093D4018093E5
:10018000D3018091CF019091D0019093C9018093C8
:10019000C8019F918F913F912F910F900FBE0F90AB
:1001A0001F90189584E084B915B892E090936E0082
:1001B00089EF87BD83E085BD94BD81E48093810094
:1001C00080E280936F0084E480BF14B888EE93E0EF
:1001D0009093CD018093CC019093D9018093D80165
:1001E0009093D2018093D10181E090E09093CB0174
:1001F0008093CA010E9457016CE571E07093DF01A2
:100200006093DE017093DB016093DA017093DD018E
:100210006093DC0180E091E00E94430278940895AD
:100220008091CA019091CB01892B41F06091DC0152
:100230007091DD0185E191E00E9443020895809173
:10024000CA019091CB01892B41F06091DC01709142
:10025000DD0186E491E00E94430208951F93CF934D
:10026000DF930E94D200C8EED3E014E005C015B8B9
:10027000D093CD01C093CC018091D8019091D90148
:10028000892BA9F70E941001D093CD01C093CC0116
:1002900005C0D093D901C093D80115B98091CC0184
:1002A0009091CD01892BA9F70E941F01E5CF87E628
:1002B0008093C40088E18093C10008951F93182F94
:1002C000873049F46091DE017091DF018AE691E0A8
:1002D0000E9443020BC08A3019F48DE00E945E0137
:1002E0008091C00085FFFCCF1093C60080E090E0B5
:1002F0001F910895EF92FF920F931F93CF93DF9377
:100300007C018091720190917301892B09F09FC04B
:1003100004E711E08091C00087FFFCCF8091C0000E
:1003200084FF03C02EEF3FEFA6C08091C00083FD85
:10033000A0C09091C6009D3011F09A3069F48AE017
:10034000F8018083B7010E945E0184E791E09093F9
:100350007301809372017BC0993009F490E2892F78
:1003600080528F3510F0903A70F0F1E0033C1F0797
:1003700011F487E004C0F80191938F01892FB70130
:100380000E945E01C7CF923139F1933138F4933036
:1003900009F46FC0983009F0BDCF09C0973109F456
:1003A0004BC09F3721F0953109F0B4CF32C0F1E056
:1003B00004371F0709F008F4ADCF88E0B7010E94A9
:1003C0005E0180E2B7010E945E0188E0B7010E94F1
:1003D0005E01015010409ECF8DE0B7010E945E018A
:1003E000C4E7D1E004C08991B7010E945E01C01743
:1003F000D107C8F38FCF88E0B7010E945E0180E289
:10040000B7010E945E0188E0B7010E945E010150C1
:10041000104081E00437180709F068F77BCF88E0C7
:10042000B7010E945E0180E2B7010E945E0188E090
:10043000B7010E945E018E01E1E004371E0709F05A
:1004400008F468CFE8018A91803249F763CFE091E0
:100450007201F09173018191F0937301E093720145
:100460008A3021F41092730110927201282F30E02B
:1004700002C02FEF3FEFC901DF91CF911F910F9184
:10048000FF90EF900895EF92FF920F931F93CF93F9
:10049000DF937C018B01DB0113968C9181FD03C0FE
:1004A000CFEFDFEF13C0C0E0D0E00BC0D80118964B
:1004B000ED91FC911997B8010995892B11F0CFEFB7
:1004C000DFEFF70181917F01882381F7CE01DF9172
:1004D000CF911F910F91FF90EF900895F894FFCF67
:1004E0005374617274696E672074696D6572732EDE
:1004F0002E2E0A0D0046696E697368656420646972
:10050000736368617267696E6720746865206361F0
:1005100070616369746F722C206E6F7720636861FD
:10052000726765210A004E4F2043415041434954B0
:10053000412068617264696861720A00000000030A
:10054000000000005E017A0100002A72696E672ACD
:020550000A009F
:00000001FF
