:100000000C9446000C9465000C9465000C946500FB
:100010000C9465000C9465000C9465000C946500CC
:100020000C9465000C9465000C9465000C946500BC
:100030000C94A2000C9465000C9465000C9465006F
:100040000C9467000C9465000C9465000C9465009A
:100050000C9465000C9465000C9465000C9465008C
:100060000C9465000C9465000C9465000C9465007C
:100070000C9465000C9465000C9465000C9465006C
:100080000C9465000C9465000C94650011241FBE4F
:10009000CFEFD0E4DEBFCDBF11E0A0E0B1E0E0EEF5
:1000A000F4E000E00BBF02C007900D92AA36B10742
:1000B000D9F711E0AAE6B1E001C01D92A83DB10751
:1000C000E1F70E942E010C946E020C9400001F9226
:1000D0000F920FB60F9211248F939F938091C401BA
:1000E0009091C501892B49F08091C4019091C5017F
:1000F00001979093C5018093C4018091D0019091A4
:10010000D101892B49F08091D0019091D1010197C3
:100110009093D1018093D0018091C9019091CA013F
:10012000892B49F08091C9019091CA010197909360
:10013000CA018093C9019F918F910F900FBE0F90BC
:100140001F9018951F920F920FB60F9211242F93A4
:100150003F938F939F938091860090918700909317
:10016000C8018093C7018091C7019091C801209177
:10017000C0013091C101821B930B9093CC018093FD
:10018000CB018091C7019091C8019093C1018093E8
:10019000C0019F918F913F912F910F900FBE0F90B3
:1001A0001F90189584E084B915B892E090936E0082
:1001B00089EF87BD83E085BD94BD81E48093810094
:1001C00080E280936F0084E480BF14B888EE93E0EF
:1001D0009093C5018093C4019093D1018093D00185
:1001E0009093CA018093C90181E090E09093C3018C
:1001F0008093C2010E94570163E571E07093D701BB
:100200006093D6017093D3016093D2017093D501AE
:100210006093D40180E091E00E94430278940895B5
:100220008091C2019091C301892B41F06091D4016A
:100230007091D50185E191E00E944302089580917B
:10024000C2019091C301892B41F06091D40170915A
:10025000D50186E491E00E94430208951F93CF9355
:10026000DF930E94D200C8EED3E014E005C015B8B9
:10027000D093C501C093C4018091D0019091D10168
:10028000892BA9F70E941001D093C501C093C40126
:1002900005C0D093D101C093D00115B98091C4019C
:1002A0009091C501892BA9F70E941F01E5CF87E630
:1002B0008093C40088E18093C10008951F93182F94
:1002C000873049F46091D6017091D70181E691E0C1
:1002D0000E9443020BC08A3019F48DE00E945E0137
:1002E0008091C00085FFFCCF1093C60080E090E0B5
:1002F0001F910895EF92FF920F931F93CF93DF9377
:100300007C0180916A0190916B01892B09F09FC05B
:100310000CE611E08091C00087FFFCCF8091C00007
:1003200084FF03C02EEF3FEFA6C08091C00083FD85
:10033000A0C09091C6009D3011F09A3069F48AE017
:10034000F8018083B7010E945E018CE691E09093F2
:100350006B0180936A017BC0993009F490E2892F88
:1003600080528F3510F0903A70F0F1E00B3B1F0790
:1003700011F487E004C0F80191938F01892FB70130
:100380000E945E01C7CF923139F1933138F4933036
:1003900009F46FC0983009F0BDCF09C0973109F456
:1003A0004BC09F3721F0953109F0B4CF32C0F1E056
:1003B0000C361F0709F008F4ADCF88E0B7010E94A2
:1003C0005E0180E2B7010E945E0188E0B7010E94F1
:1003D0005E01015010409ECF8DE0B7010E945E018A
:1003E000CCE6D1E004C08991B7010E945E01C0173C
:1003F000D107C8F38FCF88E0B7010E945E0180E289
:10040000B7010E945E0188E0B7010E945E010150C1
:10041000104081E00C36180709F068F77BCF88E0C0
:10042000B7010E945E0180E2B7010E945E0188E090
:10043000B7010E945E018E01E1E00C361E0709F053
:1004400008F468CFE8018A91803249F763CFE091E0
:100450006A01F0916B018191F0936B01E0936A0165
:100460008A3021F410926B0110926A01282F30E03B
:1004700002C02FEF3FEFC901DF91CF911F910F9184
:10048000FF90EF900895EF92FF920F931F93CF93F9
:10049000DF937C018B01DB0113968C9181FD03C0FE
:1004A000CFEFDFEF13C0C0E0D0E00BC0D80118964B
:1004B000ED91FC911997B8010995892B11F0CFEFB7
:1004C000DFEFF70181917F01882381F7CE01DF9172
:1004D000CF911F910F91FF90EF900895F894FFCF67
:1004E0005374617274696E672074696D6572732EDE
:1004F0002E2E0A0D0046696E697368656420646972
:10050000736368617267696E6720746865206361F0
:1005100070616369746F722C206E6F7720636861FD
:10052000726765210A004E4F2043415041434954B0
:10053000410A0000000003000000005E017A010093
:0A054000002A72696E672A0A0000A3
:00000001FF
